:020000040000FA
:04000000F9EF3AF0EA
:1075ED000100000001ED0EF66E750EF76E000EF83F
:1075FD006E00EE0CF010EE05F00900F5CFEEFFE594
:10760D0050E150FAE1000EF86E00010EEF3BF00074
:10761D000E956E000E8C6E938E939CF19E81BE1A0C
:10762D00EF3BF01CEF3BF049EF3BF0820E0A6EDEB4
:10763D000EE82EFED70A2EFCD7102A070E1018D8EA
:10764D00A42BEF3BF02DEF3BF049EF3BF0010E107B
:10765D006E49EF3BF0D2EC3CF015EF3BF058EC3EB1
:10766D00F015EF3BF070EC3BF015EF3BF027EC3FE6
:10767D00F015EF3BF021EC3CF015EF3BF093EC3DBA
:10768D00F015EF3BF010500A6E0B6A0B50000AD844
:10769D00B453EF3BF015EF3BF00A50010AD8B4316B
:1076AD00EF3BF0030AD8B435EF3BF0010AD8B439FB
:1076BD00EF3BF0070AD8B43DEF3BF0010AD8B441D7
:1076CD00EF3BF0030AD8B445EF3BF015EF3BF0006C
:1076DD00EF00F0000E046E000E036E04BE80EF3B53
:1076ED00F0045009E1090E035CD8A080EF3BF08255
:1076FD00EF3BF084EF3BF020EF3CF003C001F001D5
:10770D000E026E012A8DEF3BF0D8900236012E8BC2
:10771D00EF3BF002048C6E0C040D100E100F10D800
:10772D00A49BEF3BF09DEF3BF0A6EF3BF0820E01EB
:10773D006EDE0EE82EFED7012EFCD7F4EF3BF002E5
:10774D000E0C180D100E100F10D8A4B0EF3BF0B2A8
:10775D00EF3BF0C0EF3BF0020E026E040E016EBA6D
:10776D000EE82EFED7012EFCD7022EFAD700D0F44C
:10777D00EF3BF0030E0C180D100E100F10D8A4CA0D
:10778D00EF3BF0CCEF3BF0DAEF3BF0030E026E086F
:10779D000E016E770EE82EFED7012EFCD7022EFAC3
:1077AD00D700F0F4EF3BF0040E0C180D100E100F77
:1077BD0010D8A4E4EF3BF0E6EF3BF0F4EF3BF0051F
:1077CD000E026E0F0E016EF10EE82EFED7012EFC8D
:1077DD00D7022EFAD700F0F4EF3BF081BCF9EF3B66
:1077ED00F0FBEF3BF01CEF3CF0820E016EDE0EE87D
:1077FD002EFED7012EFCD7010E0C26000E0D220EEB
:10780D00220F22050E0C180D100E100F10D8A412F9
:10781D00EF3CF014EF3CF01CEF3CF0010E0C6E0051
:10782D000E0D6E000E0E6E000E0F6E034A042A74BE
:10783D00EF3BF01200000E046E000E036E04BE311D
:10784D00EF3CF0045009E1080E035CD8A031EF3C89
:10785D00F033EF3CF035EF3CF0D1EF3CF003C001DD
:10786D00F0010E026E012A3EEF3CF0D89002360177
:10787D002E3CEF3CF002508C6E0C040D100E100FD0
:10788D0010D8A44CEF3CF04EEF3CF057EF3CF0829B
:10789D000E016EDE0EE82EFED7012EFCD7A5EF3CB5
:1078AD00F0020E0C180D100E100F10D8A461EF3C45
:1078BD00F063EF3CF071EF3CF0020E026E040E012E
:1078CD006EBA0EE82EFED7012EFCD7022EFAD70087
:1078DD00D0A5EF3CF0030E0C180D100E100F10D8A4
:1078ED00A47BEF3CF07DEF3CF08BEF3CF0030E0200
:1078FD006E080E016E770EE82EFED7012EFCD70214
:10790D002EFAD700F0A5EF3CF0040E0C180D100E5A
:10791D00100F10D8A495EF3CF097EF3CF0A5EF3C7D
:10792D00F0050E026E0F0E016EF10EE82EFED70160
:10793D002EFCD7022EFAD700F0A5EF3CF081BCAAA1
:10794D00EF3CF0ACEF3CF0CDEF3CF0820E016EDE83
:10795D000EE82EFED7012EFCD7010E0C26000E0DC3
:10796D00220E220F22050E0C180D100E100F10D81E
:10797D00A4C3EF3CF0C5EF3CF0CDEF3CF0010E0C95
:10798D006E000E0D6E000E0E6E000E0F6E034A048D
:10799D002A25EF3CF01200000E086E000E076E0057
:1079AD000E066E080E056E07C001F0010E026E0187
:1079BD002AE3EF3CF0D8900236012EE1EF3CF005C2
:1079CD00C003F0010E046E032AEFEF3CF0D89004D3
:1079DD0036032EEDEF3CF0045002248C6E0C040D9A
:1079ED00100E100F10D8A4FEEF3CF000EF3DF00983
:1079FD00EF3DF0820E016EDE0EE82EFED7012EFC5D
:107A0D00D757EF3DF0020E0C180D100E100F10D8B9
:107A1D00A413EF3DF015EF3DF023EF3DF0020E0204
:107A2D006E040E016EBA0EE82EFED7012EFCD702A3
:107A3D002EFAD700D057EF3DF0030E0C180D100E97
:107A4D00100F10D8A42DEF3DF02FEF3DF03DEF3D81
:107A5D00F0030E026E080E016E770EE82EFED701B2
:107A6D002EFCD7022EFAD700F057EF3DF0040E0C86
:107A7D00180D100E100F10D8A447EF3DF049EF3D33
:107A8D00F057EF3DF0050E026E0F0E016EF10EE890
:107A9D002EFED7012EFCD7022EFAD700F057EF3D60
:107AAD00F081BC5CEF3DF05EEF3DF07FEF3DF0828D
:107ABD000E016EDE0EE82EFED7012EFCD7010E0C48
:107ACD0026000E0D220E220F22050E0C180D100E83
:107ADD00100F10D8A475EF3DF077EF3DF07FEF3D1F
:107AED00F0010E0C6E000E0D6E000E0E6E000E0FE0
:107AFD006E074A082A0506D8A0060608BE90EF3D77
:107B0D00F0085009E1080E075CD8A090EF3DF09207
:107B1D00EF3DF0DAEF3CF01200000E086E000E079C
:107B2D006E000E066E070E056E08BEA7EF3DF0083F
:107B3D005009E1080E075CD8A0A7EF3DF0A9EF3D75
:107B4D00F0ABEF3DF057EF3EF005C001F0010E0236
:107B5D006E012AB4EF3DF0D8900236012EB2EF3D02
:107B6D00F007C003F0010E046E032AC0EF3DF0D8FC
:107B7D00900436032EBEEF3DF0045002248C6E0CA3
:107B8D00040D100E100F10D8A4CFEF3DF0D1EF3D26
:107B9D00F0DAEF3DF0820E016EDE0EE82EFED7011B
:107BAD002EFCD728EF3EF0020E0C180D100E100F04
:107BBD0010D8A4E4EF3DF0E6EF3DF0F4EF3DF00218
:107BCD000E026E040E016EBA0EE82EFED7012EFCCB
:107BDD00D7022EFAD700D028EF3EF0030E0C180D69
:107BED00100E100F10D8A4FEEF3DF000EF3EF00E7A
:107BFD00EF3EF0030E026E080E016E770EE82EFEBC
:107C0D00D7012EFCD7022EFAD700F028EF3EF00454
:107C1D000E0C180D100E100F10D8A418EF3EF01A00
:107C2D00EF3EF028EF3EF0050E026E0F0E016EF1E5
:107C3D000EE82EFED7012EFCD7022EFAD700F02823
:107C4D00EF3EF081BC2DEF3EF02FEF3EF050EF3EBA
:107C5D00F0820E016EDE0EE82EFED7012EFCD7014E
:107C6D000E0C26000E0D220E220F22050E0C180DE5
:107C7D00100E100F10D8A446EF3EF048EF3EF05016
:107C8D00EF3EF0010E0C6E000E0D6E000E0E6E002E
:107C9D000E0F6E074A082A0506D8A006069BEF3D73
:107CAD00F01200000E086E000E076E08BE68EF3E63
:107CBD00F0085009E1080E075CD8A068EF3EF06AA5
:107CCD00EF3EF06CEF3EF026EF3FF007C001F00203
:107CDD000E0126010E026E012A77EF3EF0D89002BA
:107CED0036012E75EF3EF007C003F0010E0326019D
:107CFD000E046E032A85EF3EF0D8900436032E83D2
:107D0D00EF3EF007C005F0010E066E052A91EF3E1D
:107D1D00F0D8900636052E8FEF3EF0065004240263
:107D2D00248C6E0C040D100E100F10D8A4A1EF3E74
:107D3D00F0A3EF3EF0ACEF3EF0820E016EDE0EE8EA
:107D4D002EFED7012EFCD7FAEF3EF0020E0C180DC9
:107D5D00100E100F10D8A4B6EF3EF0B8EF3EF0C6DF
:107D6D00EF3EF0020E026E040E016EBA0EE82EFE0C
:107D7D00D7012EFCD7022EFAD700D0FAEF3EF00332
:107D8D000E0C180D100E100F10D8A4D0EF3EF0D21F
:107D9D00EF3EF0E0EF3EF0030E026E080E016E773F
:107DAD000EE82EFED7012EFCD7022EFAD700F0FAE0
:107DBD00EF3EF0040E0C180D100E100F10D8A4EAA3
:107DCD00EF3EF0ECEF3EF0FAEF3EF0050E026E0FD7
:107DDD000E016EF10EE82EFED7012EFCD7022EFA03
:107DED00D700F0FAEF3EF081BCFFEF3EF001EF3F20
:107DFD00F022EF3FF0820E016EDE0EE82EFED7016F
:107E0D002EFCD7010E0C26000E0D220E220F220580
:107E1D000E0C180D100E100F10D8A418EF3FF01AFD
:107E2D00EF3FF022EF3FF0010E0C6E000E0D6E00D5
:107E3D000E0E6E000E0F6E074A082A5CEF3EF01212
:107E4D0000000E076E000E066E000E096E000E0885
:107E5D006E000E056E000E046E065008248C6E0426
:107E6D00C001F0010E026E000E036E012A42EF3FBB
:107E7D00F0D89002360336012E3FEF3FF00F0E0281
:107E8D0016000E0316025006260350072204500753
:107E9D0008016E010E026E000E036E012A5AEF3FAD
:107EAD00F0D89002360336012E57EF3FF0F00E0258
:107EBD0016000E031602500826035009220C040D5D
:107ECD00100E100F10D8A46EEF3FF070EF3FF07949
:107EDD00EF3FF0820E016EDE0EE82EFED7012EFC76
:107EED00D7C7EF3FF0020E0C180D100E100F10D863
:107EFD00A483EF3FF085EF3FF093EF3FF0020E02CA
:107F0D006E040E016EBA0EE82EFED7012EFCD702BE
:107F1D002EFAD700D0C7EF3FF0030E0C180D100E40
:107F2D00100F10D8A49DEF3FF09FEF3FF0ADEF3F46
:107F3D00F0030E026E080E016E770EE82EFED701CD
:107F4D002EFCD7022EFAD700F0C7EF3FF0040E0C2F
:107F5D00180D100E100F10D8A4B7EF3FF0B9EF3F6A
:107F6D00F0C7EF3FF0050E026E0F0E016EF10EE839
:107F7D002EFED7012EFCD7022EFAD700F0C7EF3F09
:107F8D00F081BCCCEF3FF0CEEF3FF0EFEF3FF08252
:107F9D000E016EDE0EE82EFED7012EFCD7010E0C63
:107FAD0026000E0D220E220F22050E0C180D100E9E
:107FBD00100F10D8A4E5EF3FF0E7EF3FF0EFEF3FE4
:107FCD00F0010E0C6E000E0D6E000E0E6E000E0FFB
:107FDD006E044A052A05BEFDEF3FF0055009E10587
:107FED000E045CD8A0FDEF3FF0FFEF3FF033EF3F05
:037FFD00F012007F
:020000040020DA
:08000000FFFFFFFFFFFFFFFF00
:020000040030CA
:0E00000000091F1EFF8181FF0FC00FE00F409F
:00000001FF
